:020000040800F2
:100000004005002001010008BB230008771E0008FE
:10001000B9230008310A00082F280008000000005A
:10002000000000000000000000000000852500081E
:10003000D10A000800000000BD2300088725000841
:100040001B0100081B0100081B0100081B01000820
:100050001B0100081B0100081B0100081B01000810
:100060001B0100081B0100081B0100081B01000800
:100070001B0100081B0100081B0100081B010008F0
:100080001B0100081B0100081B0100081B010008E0
:100090001B0100081B0100081B0100081B010008D0
:1000A0001B0100081B0100081B0100081B010008C0
:1000B000ED2500081B0100081B0100081B010008BA
:1000C0001B0100081B0100081B0100081B010008A0
:1000D0001B0100081B0100081B0100081B01000890
:1000E0001B0100081B0100081B010008DFF80CD0F1
:1000F00000F01AFC00480047B94300084005002002
:100100000648804706480047FEE7FEE7FEE7FEE7B1
:10011000FEE7FEE7FEE7FEE7FEE7FEE7E92500086B
:10012000ED0000082DE9F0410024061B254671F181
:10013000000605DA01240027D0EB070067EB010178
:10014000161E73F1000605DA0027D2EB070201251F
:1001500067EB030300F0F6F986460E4617469C4609
:10016000AC4204D00025D0EB050E65EB010624B1AE
:100170000020D2EB000760EB030C704631463A4694
:100180006346BDE8F081202A04DB203A21FA02F020
:100190000021704721FA02F3D040C2F120029140C1
:1001A000084319467047D2B201E000F8012B491EFE
:1001B000FBD270470022F6E710B513460A46044604
:1001C0001946FFF7F0FF204610BD30B50446002069
:1001D000034600E05B1C934203D2E05CCD5C401B15
:1001E000F8D030BDF0B480EA0102D40F4200B2EB87
:1001F000410F02D20246084611464A0042D0C30DC2
:10020000DDB2C1F3C752AD1A202D35DAC1F31601A4
:1002100041F4000204B15242C5F1200602FA06F18F
:100220002A411044B3EBD05F23D0C4B1012DA0EB21
:10023000C35009DCF0BC4FF0004202EAC352DBB20B
:1002400000F5000000F0B8B9400000F1807000EB4C
:10025000C350A0F1807040EAD170490009E049081C
:1002600041EAC071A0EBC35000F50000400800EB6C
:10027000C350F0BC00F097B96142012202EB41018A
:10028000001BF6E7F0BC704781F00041AAE780F060
:100290000040A7E780EA010210B502F000434000E9
:1002A00022D04A001FD0010E01EB1261C0F35600AC
:1002B000C2F3560240F4000042F40002A0FB022008
:1002C00000047F39140400D0401C50EA124001D4CD
:1002D0004000491EC2B20C0604EBD010401C40087E
:1002E000802A02D003E0002010BD20F00100002988
:1002F00000DA0020184310BD30B480EA010202F099
:10030000004530F0004221F0004013D090B1C30D01
:10031000D40DC2F31601C0F31600E41A41F4000133
:1003200040F400027D34914201D3641C00E0490096
:10033000002C02DA30BC002070474FF4000000238C
:10034000914201D3891A034340084FEA4101F7D192
:1003500051B1914202D14FF0004105E002D24FF07D
:10036000010101E06FF0010103EBC450284430BCEF
:1003700000F019B9420005D0C0F3C7525242914271
:1003800001DC0020704700EBC15070472DE9FE4FA3
:1003900081EA030404F0004421F0004100944FF08E
:1003A000000B23F0004350EA01045ED052EA03043C
:1003B0005BD0C3F30A54C1F30A552C44A4F2F334BE
:1003C0000194A0FB0254C1F3130141F48011C3F363
:1003D000130343F4801301FB024400FB034E840A21
:1003E000970A44EA815447EA8357A4FB07680295B9
:1003F0008D0A05FB07854FEA932C04FB0C54270557
:10040000029D4FEA065847EA1637B5EB08056EEB32
:10041000070C870E920E47EA811742EA8312A7FB68
:100420000201B6EB0B0164EB00042B0D43EA0C3325
:100430005E1844EB1C50DA465146E7FB0201C5F357
:1004400013044FEA0B3343EA14534FEA0432019C7E
:1004500043EA0603A4F10C040294009CCDE900B425
:1004600000F0E7F803B0BDE8F08F00200146F9E79F
:10047000C10F80EAE0700844CA079623002100F00B
:100480009BB896230022114600F096B800F0004277
:1004900020F00040C10DC0F3160040F400007F2999
:1004A00001DA00207047962903DCC1F19601C840AB
:1004B00001E096398840002AF4D04042704720F08D
:1004C0000040C10DC0F3160040F400007F2901DA9E
:1004D00000207047962903DCC1F19601C84070479F
:1004E00096398840704700F0004230F000400AD052
:1004F000C10D01F56071C0F3160042EA0151C20856
:1005000040071143704700200146704701F0004347
:1005100030B421F0004150EA010206D00A0DA2F5E4
:100520006072C1F31301002A02DC30BC0020704766
:10053000440F44EAC104C100E01830BC00EBC250D3
:1005400000F031B82DE9F05F0546002092469B4649
:1005500088460646814640241BE0284641464746D9
:100560002246FFF710FE53465A46C01A914110D357
:1005700011461846224600F0E9F92D1A67EB0108EA
:100580004F4622460120002100F0E0F917EB000958
:100590004E41201EA4F10104DFDC484631462A46C4
:1005A0004346BDE8F09F0029A8BF7047401C4900A2
:1005B00008BF20F00100704710B4B0FA80FC00FAC8
:1005C0000CF050EA010404BF10BC704749B1CCF1F3
:1005D000200421FA04F411FA0CF118BF012121437F
:1005E0000843A3EB0C01CB1D4FEA00614FEA10203A
:1005F00042BF002010BC704700EBC35010440029DC
:10060000A4BF10BC7047401C490008BF20F0010087
:1006100010BC704710B5141E73F1000408DA401CBA
:1006200041F1000192185B411A4301D120F0010011
:1006300010BD2DE9F04D92469B4611B1B1FA81F201
:1006400002E0B0FA80F22032904600F07FF90446D2
:100650000F4640EA0A0041EA0B0153465A46084356
:1006600013D0114653EA010019D0C8F14002504698
:10067000FFF789FD05460E4650465946424600F0B2
:1006800065F9084305D0012004E020463946BDE85D
:10069000F08D0020054346EAE0762C4337430A9864
:1006A0006305E40AA0EB08000022FD0A44EA47546F
:1006B0000A3002D500200146E9E701051019694119
:1006C000DDE9084500196941BDE8F04DA2E72DE9D3
:1006D000FE4F804681EA0300C00F0C46009021F0D7
:1006E000004123F00045B8EB0200A94105D2404685
:1006F000214690461C460B46024623F0004010431C
:1007000047D0270DC7F30A00C3F30A510290401ADD
:10071000019040286BDAC3F3130040F4801B00986B
:10072000924620B10023D2EB030A63EB0B0B019836
:100730005946C0F14002504600F008F906460D4601
:1007400050465946019A00F010F910EB080061413B
:10075000002487EA115284EAE7731A4340D0009AD2
:1007600062B3019A012A4FEA075215DC001B61EBC4
:1007700002014FF0004202EA0752CDE90042001C9C
:1007800041F5801132462B46FFF753FF03B0BDE819
:10079000F08F40462146F9E7001B61EB0201001C87
:1007A00041F5801300185B412018A2F5001747EBB4
:1007B000030140EAD570B6196D4111E06D084FEAAA
:1007C000360645EAC0754FEA0752001B61EB02018D
:1007D000001C41F5801149084FEA300000195141D1
:1007E00032462B4603B0BDE8F04FFFF713BF009829
:1007F000012240000023D0EB020263EBE07300987B
:1008000021464FEAE074B8EB000061EB0401E9E730
:1008100083F000435BE781F0004158E72DE9F04D9C
:1008200081EA030404F0004B21F0004514464FF028
:10083000000A23F0004150EA050220D054EA0102E8
:100840001DD0C5F30A570246C5F31303C1F31300C5
:10085000C1F30A5640F4801543F48013A7EB060851
:10086000101BD64608F2FD3873EB050002D308F1E1
:10087000010801E092185B41B8F1000F03DA002093
:100880000146BDE8F08D00204FF4801106468446F5
:100890000EE0171B73EB050705D3121B63EB050373
:1008A00006434CEA010C49084FEA300092185B41BC
:1008B00050EA0107EDD152EA030012D082EA0400A7
:1008C00083EA0501084305D0101BAB4106D2012283
:1008D000002306E000224FF0004302E06FF0010227
:1008E00053101AEB06004CEB085110EB0A0041EBD9
:1008F0000B01BDE8F04DFFF78DBE70B521F0004350
:1009000003430CD0C1F30A550024D5EB040564EB76
:100910000403D617AD1AB34102DB0020014670BDB7
:10092000201841EB025170BD064C074D06E0E0680F
:1009300040F0010394E8070098471034AC42F6D326
:10094000FFF7D8FB2061000840610008202A04DB83
:10095000203A00FA02F1002070479140C2F12003D2
:1009600020FA03F3194390407047202A06DBCB1787
:10097000203A41FA02F043EAE07306E041FA02F35A
:10098000D040C2F1200291400843194670472DE93A
:10099000F04D00231A461B1A8A4103DB0020014652
:1009A000BDE8F08DC1F30A52C1F3130141F4801583
:1009B0004FF0000BD10702D100186D41521E0027E5
:1009C000044640F2FF11384601EB620A3E4680467B
:1009D000024600204FF48011FFF7D5FBC219714188
:1009E000BB1846EB0100B4EB030C75EB000C04D311
:1009F000E41A65EB000517460E46241908F10100BC
:100A00006D4180463428E3DDF91946EB0600091BE9
:100A1000A84103D24FF0FF32134601E000221346F3
:100A20001BEB070046EB0A51BDE8F04DFFF7F2BDA6
:100A3000FEE7000070B503F0BFFD08B10A2070BDED
:100A4000782004F057FB08B1012070BD782003F036
:100A5000E5FC08B1022070BD642004F001FB08B180
:100A6000032070BD02F056FE08B1042070BD174887
:100A7000044603F07DFC0546E01C03F079FC45EAE2
:100A8000C005A01D03F074FC45EA801080B202F09E
:100A9000F1FF08B1052070BD40F2731002F012FDA5
:100AA00008B1062070BD642002F04CFF08B1072099
:100AB00070BD04F0C6FB08B1082070BD012004F031
:100AC000CFF90028F9D0092070BD00008000002077
:100AD000704772B6FEE7000070B5044600F0FEF8FD
:100AE0000546601C02D004480078044400F0F6F883
:100AF000401BA042FAD370BD240000202DE9F84F1E
:100B0000DFF8B891002409F1040A0AF1040B234626
:100B10000F270BF1040EC9E00125A5402A40AA4287
:100B20007DD1674ED1F804C0ACEB0608B44532D095
:100B300014DCBCF1030F3AD009DCBCF1000F2AD061
:100B4000BCF1010F1CD0BCF1020F31D11DE0BCF192
:100B5000110F17D0BCF1120F2AD119E0B8F5881F78
:100B600019D006DCB8F5803F15D0B8F5801F1FD12D
:100B700011E0B8F5001F0ED0B8F5041F18D10AE037
:100B8000CB6815E0CB681B1D12E0CB6808330FE083
:100B9000CB680C330CE08B682BB1012B4FF00803B2
:100BA00003D0456104E0042302E0056100E0002376
:100BB000FF2A01D8064601E000F104064FEA840549
:100BC00001D9A5F12005D6F8008007FA05FC28EA2E
:100BD0000C0803FA05F548EA0508C6F800804D68D8
:100BE000ED0062D5374DAE6946F00106AE61AD69E4
:100BF00024F0030605F001050095334D06EB050CC6
:100C0000DCF80850A607360F07FA06F825EA0805AB
:100C1000DFF8B880404503D14FF0000817E044E00A
:100C2000DFF8AC80404502D14FF001080FE0DFF85B
:100C3000A480404502D14FF0020808E0DFF8988018
:100C4000404502D14FF0030801E04FF0040808FAD4
:100C500006F848EA0508CCF808804D68D9F8006025
:100C6000ED034D4601D5164300E096432E604D68D6
:100C7000DAF80060AD03554601D5164300E096430F
:100C80002E604D68DBF80060ED025D4601D516432D
:100C900000E096432E604D68DEF80060AD027546B8
:100CA00001D5164300E096432E60641C0D682A4669
:100CB000E5407FF431AFBDE8F88F0000000401404B
:100CC0000000111000100240000001400008014027
:100CD000000C0140001001400014014001488068F0
:100CE000704700002400002070B5040025D094F85F
:100CF0003D00002520B984F83C50204600F078FAE9
:100D0000242084F83D002068016821F00101016081
:100D10002068016841F4004101602068016821F405
:100D20000041016000F0C0FB4D4A6168914201D86A
:100D30004C4900E04C49884201D2012070BD4B492A
:100D40002368B0FBF1F15E6826F03F060E435E605B
:100D50006368934206D94FF4967359434FF47A73FC
:100D6000B1FBF3F12368491C1E6A26F03F063143AC
:100D700019626168914210D84900401EB0FBF1F23F
:100D8000521CC2F30B02042A01D2042022E0B0FB61
:100D9000F1F0401CC0F30B001CE0A268F2B301EBC1
:100DA000C10303EB0116431EB3FBF6F35B1C43F4D4
:100DB00080431B0549D092B301EBC10202EB011144
:100DC000401EB0FBF1F0401CC0F30B0040F480402B
:100DD00040F400402168CA694CF6FF739A431043FF
:100DE000C861D4E9071001432068026822F0C002FC
:100DF00011430160D4E9030101432068826848F28D
:100E0000FF339A4311438160D4E905010843216807
:100E1000CA6822F0FF021043C86001E00EE016E04D
:100E20002068016841F0010101602564202084F8F8
:100E30003D00256384F83E50002070BD01EB410663
:100E4000431EB3FBF6F35B1CB3E70120C2E701EBE3
:100E50004101401EB0FBF1F0401CC0F30B00B7E7AE
:100E6000A086010080841E0000093D0040420F0062
:100E70002DE9FF4F83B00025DDE910799A469346AE
:100E80000446DDF848800095FFF728FF064694F8F1
:100E90003D0020287CD11923012285492046009657
:100EA00001F0FAF80028F5D194F83C0001286FD041
:100EB000012084F83C0020680168C90703D101685B
:100EC00041F0010101602068016821F400610160C6
:100ED000222084F83D00402084F83E0025646762AB
:100EE000A4F82A90608D20857248E062CDE90086E2
:100EF00053465A462046049900F0D6FF00287DD17B
:100F0000208DDFF8B491202768B1012814D0022881
:100F1000206801681ED041F4806101602068416949
:100F200080690090B6E0206841698169009101689C
:100F300041F400710160ADE02068016821F4806136
:100F4000016072B62068416981690091016841F4CD
:100F500000710AE041F40061016072B620684169E5
:100F600081690091016821F48061016062B691E0BD
:100F7000032868D801280CD0022843464FF000020D
:100F80004946204600960FD001F086F8B0BB10E02D
:100F90008BE032464146204601F0FDF870BB2068E8
:100FA0000069616A08706CE001F076F830BB72B6D7
:100FB00034E02068016821F48061016072B6206825
:100FC0000069616A0870606A401C6062208D401E82
:100FD0002085608D401E6085384846F2A811006863
:100FE000B0FBF1F0C0EBC00000EB80000090401EB1
:100FF000009008D020684069C04300E029E0400725
:101000000CD50098F3E744F8305F6773A573206947
:1010100040F02000206162B625731AE02068016864
:1010200041F40071016020680069616A0870606ABB
:10103000401C6062218D491E2185618D491E61859C
:1010400062B621681BE032464146204601F0A3F813
:1010500018B1012007B0BDE8F08F20680069616A0F
:101060000870606A401C6062218D491E2185618D77
:10107000491E618521684A69D24352070AD4096929
:101080000170606A401C6062208D401E2085608D6A
:10109000401E6085208D00287FF46AAF84F83D7083
:1010A00084F83E5084F83C50D4E70220D2E7000098
:1010B000020010000000FFFF0400010030000020CB
:1010C0002DE9FF4F83B09A46DDE911979346044618
:1010D000DDF84080FFF702FE054694F83D00202829
:1010E0007FD11923012240492046009500F0D4FF0A
:1010F000002876D194F83C00012872D0012084F8B1
:101100003C0020680168C90703D1016841F0010172
:1011100001602068016821F400610160212084F8E9
:101120003D00402084F83E0000262664C4F8248058
:10113000A4F82A90608D20852C48E062CDE90075E6
:1011400053465A462046049900F02CFF70B930E00F
:101150002A463946204601F051F858B1206C04283F
:1011600004D12068016841F400710160012007B0DA
:10117000BDE8F08F606A216800780861606A401CF1
:101180006062218D491E89B22185628D521E628561
:1011900022685369DB435B070BD469B100781061A7
:1011A000606A401C6062208D401E2085608D401E5C
:1011B0006085208D0028CBD12A463946204600F094
:1011C00045FF0028CAD154F83D0B016841F4007175
:1011D0000160202004F81E09E67766770020C6E744
:1011E000FFE70220C3E70000020010000000FFFF3D
:1011F00010B586B000210091019102910391006821
:101200000F4988421AD10F4CA06940F00800A06134
:10121000A069694600F008000490C02000901220E8
:101220000190032003900848FFF768FCE06940F450
:101230000010E061E06900F40010049006B010BDF9
:101240000054004000100240000C01400248816838
:10125000027811448160704724000020074810B5CF
:10126000016841F010010160032000F075F80F20C3
:1012700000F006F800F024F8002010BD0020024025
:1012800070B50D4D04464FF47A712878B1FBF0F03B
:101290000A490968B1FBF0F000F0DCFA48B9102CFB
:1012A00007D200222146501E00F036F800206C6064
:1012B00070BD012070BD000024000020300000201F
:1012C0000C4808B5816941F001018161816901F033
:1012D00001010091C16941F08051C161C06900F014
:1012E000805000900448416821F0E06141F00071B5
:1012F000416008BD0010024000000140002809DBE9
:1013000000F01F02012191404009800000F1E0201F
:10131000C0F8001170470000F0B40E4B1B680C467B
:10132000C3F30223C3F10705042D00D90425191DB9
:10133000072901D2002300E0DB1E012606FA05F191
:10134000491E214099409E40761E16403143F0BC14
:1013500001F092BA0CED00E0064900F007020868BF
:101360004FF6FF03184040EA0220034A104308608A
:10137000704700000CED00E00000FA052DE9F04791
:101380000F46050061D0434E306800F00700B842B8
:1013900009D2306820F0070038433060306800F030
:1013A0000700B84251D128683B4C810712D540074D
:1013B00003D5606840F4E06060602878000703D5DA
:1013C000606840F4605060606068A96820F0F000D8
:1013D000084360602878C00728D06868012810D0CA
:1013E0002168022810D0890700292EDA616821F0CF
:1013F000030101436160FFF771FC804641F28839C7
:101400000DE021688903EFE78901EDE7FFF766FC4E
:10141000A0EB0801494502D90320BDE8F0876068C8
:10142000696800F00C00B0EB810FEFD1306800F07C
:101430000700B8420BD9306820F00700384330600D
:10144000306800F00700B84201D00120E5E72878B5
:10145000400705D56068E96820F4E06008436060F3
:101460002878000706D56068296920F4605040EAB2
:10147000C100606000F028F86168084AC1F30311F8
:10148000515CC8400649086006480068FFF7F8FE4E
:101490000020C2E7002002400010024080530008F4
:1014A00030000020280000200448054900684968F1
:1014B000044AC1F30221515CC8407047300000204B
:1014C000001002409053000812A185B00FC98DE8AA
:1014D0000F0014A0144A006804905168134801F0EA
:1014E0000C03042B10D0082B0ED1C1F38343C90386
:1014F0001DF803000AD5516804AAC1F34041515CAC
:101500000A4A5043B0FBF1F005B070470849484320
:10151000FAE7000002030405060708090A0B0C0D90
:101520000E0F1010010200000010024000127A009D
:1015300000093D002DE9F84F040070D02078C04D1F
:10154000C00749D06868C0F38100012807D06868E7
:10155000C0F38100022809D16868C00306D5286855
:10156000800339D560680028E7D035E06068B0F5C1
:10157000803F0BD010B1B0F5A02F11D0286820F417
:1015800080302860286820F4802002E0286840F439
:1015900080302860606890B1FFF7A0FB06460AE043
:1015A000286840F480202860F0E700BFFFF796FB32
:1015B000801B642873D828688003F7D50CE0FFF7F8
:1015C0008DFB064605E000BFFFF788FB801B642803
:1015D000F0D828688003F7D420789A4E80074FF01F
:1015E00001094FF0000839D5686810F00C0F07D0DA
:1015F0006868C0F38100022809D16868C00306D476
:101600002868800714D52069012808D110E02069D6
:10161000B0B1C6F80090FFF761FB074605E00AE1AC
:10162000FFF75CFBC01B0228C4D828688007F7D5E9
:101630002868616920F0F80040EAC10028600DE0E8
:10164000C6F80080FFF74AFB074604E0FFF746FBB9
:10165000C01B022823D828688007F7D42078000709
:101660002CD57948A169D9B1C0F80090FFF736FBB5
:10167000074604E0FFF732FBC01B02280FD8686A58
:101680008007F7D571484FF4FA510068B0FBF1F0CC
:10169000009000BF0098411E0091FAD20EE080E059
:1016A000C0F80080FFF71AFB074604E0FFF716FBBF
:1016B000C01B022875D8686A8007F7D420784007D5
:1016C00060D5E8690027C00008D4E86940F0805080
:1016D000E861E869012700F0805000905C480168EB
:1016E000C90513D40168834641F480710160FFF796
:1016F000F5FA824606E000BFFFF7F0FAA0EB0A0019
:1017000064284ED8DBF80000C005F5D5E068012854
:101710000AD008B1052813D0286A20F001002862F9
:10172000286A20F0040002E0286A40F001002862E4
:10173000E06841F2883B98B1FFF7D0FA82460BE0AF
:10174000286A40F004002862EEE700BFFFF7C6FAFF
:10175000A0EB0A0159455AD8286A8007F6D50CE053
:10176000FFF7BCFA824605E0FFF7B8FAA0EB0A01E2
:1017700059454CD8286A8007F6D41FB1E86920F093
:101780008050E861E06988B36968C1F3810102298A
:1017900044D00228C6F8608004D0FFF79FFA0446C0
:1017A00038E034E0FFF79AFA074604E0FFF796FACC
:1017B000C01B02282BD828688001F7D4206AB0F516
:1017C000803F05D16868A16820F400300843686054
:1017D000D4E908010843696821F47411084368607A
:1017E000C6F86090FFF77AFA044606E025E000BFED
:1017F000FFF774FA001B022809D828688001F7D582
:101800001BE000BFFFF76AFA001B022802D9032081
:10181000BDE8F88F28688001F4D40EE00128F7D0E5
:101820006868226A00F48031914204D1616A00F450
:101830007010884201D00120EAE70020E8E70000AC
:10184000001002400000424280044242300000206A
:101850000070004010B5401EB0F1807F01D3012020
:1018600010BD4FF0E02460610F21601701F004F813
:101870000020A06107202061002010BD7047704744
:1018800070B590F83C20012A26D0012480F83C4015
:10189000022280F83D2003685A689D6822F0700695
:1018A0000A6832435A600D4B02689A4208D0B2F17E
:1018B000804F05D00A4B9A4202D00A4B9A4204D17B
:1018C000496825F080031943916080F83D4000216C
:1018D00080F83C10084670BD022070BD002C01400D
:1018E000000400400008004010B5040003D094F844
:1018F0003D0010B107E0012010BD002084F83C003D
:10190000204600F01FF8022084F83D00211D2068C9
:1019100000F072FE012084F8460084F83E0084F84E
:101920003F0084F8400084F8410084F8420084F8C5
:10193000430084F8440084F8450084F83D0000200A
:1019400010BD000008B50068B0F1804F12D10A4800
:10195000C16941F00101C161C069002200F00100CC
:10196000009011461C20FFF7D7FCBDE808401C2062
:10197000FFF7C4BC08BD00000010024090F83D1005
:10198000012901D001207047022180F83D10016833
:10199000CA6842F00102CA6000680B49884208D058
:1019A000B0F1804F05D00949884202D008498842E9
:1019B00004D1816801F00701062903D0016841F0D4
:1019C0000101016000207047002C0140000400402C
:1019D0000008004070B5044690F83C00012817D07C
:1019E000012584F83C50022084F83D00206882687C
:1019F00022F0770222F47F4282600868502830D0BB
:101A00000DDC20284DD005DC98B310283BD148E0F0
:101A1000022070BD302844D0402834D139E06028FD
:101A200028D0702806D0B0F5805F2CD0B0F5005FCC
:101A300029D10AE0CB68D1E90121206800F01FFE1E
:101A40002068816841F0770109E0CB68D1E9012184
:101A5000206800F014FE2068816841F480418160B4
:101A600011E0CA684968206800F0BEFE5021206875
:101A700007E016E0CA684968206800F0C6FE6021E9
:101A8000206800F006FE84F83D50002084F83C00F9
:101A900070BDCA684968206800F0A6FE4021206831
:101AA000EFE7226801461046EBE7704770B5044641
:101AB000006801694FF00005C943890715D4C16862
:101AC000C943890711D4E91E0161012020772068EC
:101AD00080698007204602D0FFF7E7FF04E000F0AE
:101AE000BDF8204600F04CF9257720680169C9430C
:101AF000490717D4C168C943490713D46FF00401DB
:101B00000161022020772068806910F4407F204620
:101B100002D0FFF7CAFF04E000F0A0F8204600F072
:101B20002FF9257720680169C943090716D4C168D0
:101B3000C943090712D46FF008010161042020771E
:101B40002068C0698007204602D0FFF7AEFF04E09E
:101B500000F084F8204600F013F925772068016929
:101B6000C943C90617D4C168C943C90613D46FF065
:101B700010010161082020772068C06910F4407FBF
:101B8000204602D0FFF791FF04E000F067F82046FE
:101B900000F0F6F8257720680169C943C90708D124
:101BA000C168C943C90704D1891E0161204600F0FC
:101BB00037F920680169C943090609D4C168C943D6
:101BC000090605D46FF0800101612046FFF756FE3B
:101BD00020680169C943490609D4C168C943490657
:101BE00005D46FF040010161204600F043F9206800
:101BF0000169C94389060BD4C168C943890607D462
:101C00006FF0200101612046BDE87040FFF737BE4C
:101C100070BD000000B585B00021009101910291D6
:101C200003910068B0F1804F11D10A48816941F0F9
:101C3000040181618069694600F00400049003207A
:101C400000900220019003900348FEF757FF05B073
:101C500000BD00000010024000080140704770B550
:101C6000044690F83C000D4601280AD0012084F873
:101C70003C0042B1042A18D0082A2AD00C2A4DD19F
:101C800039E0022070BD206800F00CFD20688169F9
:101C900041F0080181612068816921F004018161BE
:101CA000206881692A69114311E0206800F022FD53
:101CB0002068816941F4006181612068816921F4B3
:101CC00080618161206881692A6941EA022181611C
:101CD00024E0206800F03AFD2068C16941F0080165
:101CE000C1612068C16921F00401C1612068C16936
:101CF0002A69114311E0206800F054FD2068C16991
:101D000041F40061C1612068C16921F48061C16151
:101D10002068C1692A6941EA0221C161002084F872
:101D20003C0070BD10B5040003D094F83D0010B124
:101D300007E0012010BD002084F83C00204600F0A0
:101D40001EF8022084F83D00211D206800F054FC9C
:101D5000012084F8460084F83E0084F83F0084F8AF
:101D6000400084F8410084F8420084F8430084F87D
:101D7000440084F8450084F83D00002010BD704701
:101D80007047000010B50446022249B104290ED064
:101D9000082913D094F84100012816D0012010BD65
:101DA00094F83E000128F9D184F83E200FE094F821
:101DB0003F000128F2D184F83F2008E094F8400069
:101DC0000128EBD184F8402001E084F84120012271
:101DD000206800F047FC0F492068884203D1426C1C
:101DE00042F4004242642068884208D0B0F1804F3B
:101DF00005D00949884202D00849884204D1816847
:101E000001F00701062903D0016841F001010160DA
:101E1000002010BD002C01400004004000080040DC
:101E2000124910B5884217D1114800214FF4E152F0
:101E30004469C369A34202DA5B1CC36106E00388FC
:101E4000934201D1018000E00280C1618469036A8C
:101E5000A34202DA5B1C036210BD4388934201D1A6
:101E6000418000E04280016210BD0000E8000020D7
:101E7000000000207047FEE701684A69D24352051E
:101E80000FD46FF480624A61002140F8301F202295
:101E900042738173026942F00402026101730120FE
:101EA00070470020704700002DE9F84F0446006895
:101EB00089460B9D01689846174641F48061016090
:101EC0002068016841F48071016000954FF0011BAA
:101ED0000022594620460A9B00F0DEF84FF4007AB3
:101EE00040B120680068C00501D5C4F840A00320B7
:101EF000BDE8F88F216809F0FE0008612B462849EB
:101F000020460A9A00F0FCF8F0BB2068416980691D
:101F100000902A4620460A9900F070F940B1206CE2
:101F200004283AD12068016841F40071016034E06E
:101F3000FEB2B8F1010F09D02168380A08612A46BB
:101F400020460A9900F05AF90028E8D12068066175
:101F50002A4620460A9900F051F90028DFD120686E
:101F6000016841F4807101600095002259462046C5
:101F70000A9B00F091F80028B3D1216809F0FF0016
:101F800040F00100086100E007E02B4604492046CC
:101F90000A9A00F0B5F80028AAD00120A8E70000AE
:101FA000020001002DE9F843044600680D46DDE912
:101FB000089701689846164641F4807101604B46C7
:101FC00000224FF001112046009700F065F848B15B
:101FD00020680068C00502D54FF40070206403201B
:101FE000BDE8F883216805F0FE0008613B464A46DB
:101FF0001549204600F084F888B920684169806955
:1020000000903A464946204600F0F8F848B1206C66
:10201000042804D12068016841F4007101600120A6
:10202000DEE7F5B2B8F1010F09D02168300A086186
:102030003A464946204600F0E1F80028E7D12068FA
:1020400005610020CCE700000200010070B51646D3
:102050000D4604460DE02046FFF70EFF08B10120B3
:1020600070BD681C05D0FEF739FE801BA84207D85A
:1020700035B120684069C0434007ECD4002070BDF2
:10208000002044F8300F20216173A073216941F0D2
:10209000200121612073E2E72DE9F0471E469046BA
:1020A0000D460446C1F30747DDF8209008E0701C98
:1020B00006D0FEF713FEA0EB0900B0420FD876B1B0
:1020C0002068012F18D0806925EA00000004000C68
:1020D00014D000214145EAD00020BDE8F08700205F
:1020E00044F8300F20216173A073216941F0200171
:1020F000216120730120F0E74069E5E70121E9E76C
:102100002DE9F0479A4691460E46044600254FF0C9
:102110002008C1F3074725E020684069C043400517
:1021200014D42068016841F40071016021686FF4E3
:1021300080604861256384F83D8084F83E50206CBF
:1021400040F00400206484F83C501FE0B9F1FF3FE8
:1021500008D0FEF7C3FDA0EB0A0149450CD8B9F140
:10216000000F09D02068012F13D0806926EA0000F3
:102170000004000C0BD0CFE744F8305F84F80D80EA
:10218000A573206940F02000206125730120BDE87F
:10219000F0874069EAE72DE9F041002590460E46B8
:1021A0000446202717E04069C043C0060CD454F809
:1021B000301B6FF01000486144F810596777A5771D
:1021C000206A2062257717E0FEF788FDA0EB080063
:1021D000B04208D83EB120684169C9434906E2D4FB
:1021E0000020BDE8F08144F8305F6773A573206973
:1021F00040F02000206125730120F2E770B51646FB
:102200000D4604460DE02046FFF736FE08B10120DA
:1022100070BD681C05D0FEF761FD801BA84207D881
:1022200035B120684069C0430006ECD4002070BD81
:10223000002044F8300F20216173A073216941F020
:10224000200121612073E2E710B50649FEF722F86C
:10225000FEF71CF9044988614888044909688863C5
:1022600010BD000000401C4600000020E8000020D7
:1022700010B50649FEF70EF8FEF708F90449486163
:10228000088804490968486310BD000000401C46E6
:1022900000000020E80000200D4808B5816941F0E9
:1022A00020018161816901F020010091816941F083
:1022B00004018161816901F004010091816941F0AB
:1022C00008018161806900F00800009008BD0000ED
:1022D000001002400D4810B50B4901600C494160E7
:1022E00000214FF480428160C0E9031241618161A5
:1022F000C1610162FEF7F8FC002803D0BDE8104080
:10230000FEF7E7BB10BD0000005400409400002021
:10231000801A060010B58EB0002407940894099422
:102320000A940B941C2168460C94FDF743FF214846
:102330004FF08041C0E9001441F61F41C0E902415D
:1023400004618461FFF7D0FA08B1FEF7C2FB4FF4D5
:102350008050079007A91748FFF73CFB08B1FEF72C
:10236000B8FB1448FFF7DEFC08B1FEF7B2FB0B9494
:102370000BA910480C94FFF783FA08B1FEF7A9FBEC
:102380006020CDE9000402940022694609480494C3
:10239000FFF765FC08B1FEF79CFB0422694605487F
:1023A000FFF75DFC08B1FEF794FB0248FFF732FC33
:1023B0000EB010BDE8000020FEE7FEE77047000009
:1023C0002DE9F74F88B082466C4C07A8CDE9004054
:1023D0008B4604F11A0106AB02AA881F01F0A4F98A
:1023E00018B101200BB0BDE8F08F2088C0057CD566
:1023F0000298FEF73DF86FF01D063146FDF7BAFF73
:10240000054660600398FEF733F83146FDF7B2FFEA
:102410008046A0600498FEF72BF83146FDF7AAFF2E
:102420000746E0600598FEF723F83146FDF7A2FF66
:102430000646206101212846FDF79CFF3946FDF73D
:1024400029FF07464FF0404529464046FDF722FF49
:102450003146FDF71FFF3946FDF7C4FEFEF743F88E
:1024600000F00AFDDFF818914FF0663842464B46FF
:10247000FDF78CFFFEF74AF8CAF80000E06801217A
:102480000646FDF777FF82463146FDF703FF074614
:10249000A06829460646FDF7FDFE3146FDF7FAFE27
:1024A0003946FDF7F1FE4FF07E51FDF79BFEFEF73A
:1024B0001AF807460D4601216068FDF75BFF3146BB
:1024C000FDF7E8FE064650462169FDF7E3FE31467A
:1024D000FDF788FEFEF707F83A462B4600F014FF9A
:1024E00042464B46FDF752FF00E044E0FEF70EF88F
:1024F000CBF80000216901910846FDF7CBFEE168A9
:10250000074608460091FDF7C5FEA16806468B46C2
:102510005846FDF7BFFE616805468A465046FDF7FE
:10252000B9FE2946FDF75EFE3146FDF7ADFE3946A0
:10253000FDF7AAFEFDF7D7FF05460C465046019968
:10254000FDF7A8FE064658460099FDF7A3FE314662
:10255000FDF748FE0121FDF70DFFFDF7C4FF2A46F8
:10256000234600F0D1FE42464B46FDF70FFFFDF734
:10257000CDFF0A990860002034E7000060000020C9
:1025800066A64C407047FEF761BE30B58FB028217B
:102590006846FDF70FFE14210AA8FDF70BFE012186
:1025A0000804CDE900100024029402250491CDE92D
:1025B00007504FF4E01009906846FEF7BBFF08B1E2
:1025C00072B6FEE70F20CDE90A054FF48060CDE931
:1025D0000C4002210AA80E94FEF7D0FE002801D07C
:1025E00072B6FEE70FB030BD704700000148FFF73C
:1025F0005DBA0000E8000020F0B50268164B174CE9
:10260000174D4FF08047984205D0B84203D0A04202
:1026100001D0A84203D122F070064A6832439842A2
:1026200005D0B84203D0A04201D0A84203D122F481
:102630004074CA6822434C6922F08002224302603F
:102640008A68C2620A688262984201D1096901639C
:1026500001214161F0BD0000002C01400004004058
:102660000008004010B501F01F030121046A9940E1
:102670008C430462016A9A401143016210BD10B597
:10268000846842EA032224F47F440A43224382609E
:1026900010BD826822F070020A4342F00701816097
:1026A0007047000030B5026A22F001020262026A3D
:1026B0004368846924F073050C682C4322F00205FA
:1026C0008A682A430A4DA8420BD122F00805CA683D
:1026D00023F440732A434D6922F004021D438B69A1
:1026E0002B434360846149684163026230BD00004E
:1026F000002C014030B5026A22F010020262026A28
:10270000436884690D6824F4E64444EA05248D682E
:1027100022F0200242EA05120B4DA8420ED1CD68EC
:1027200022F0800242EA05124D6923F4406343EA35
:1027300085038D6922F0400243EA8503436084618A
:1027400049688163026230BD002C014030B5026AE5
:1027500022F480720262036A4268C46923F400733F
:1027600024F073050C682C438D6843EA05230C4D57
:10277000A8420ED1CD6823F4006343EA05234D69D6
:1027800022F4405242EA05128D6923F4806342EA42
:1027900005124260C4614968C163036230BD000034
:1027A000002C014030B5026A22F480520262046AB1
:1027B0004268C3690D6823F4E64343EA05238D6844
:1027C00024F4005444EA0534064DA84204D14D696E
:1027D00022F4804242EA85124260C3614968016482
:1027E000046230BD002C014010B5036A046A24F075
:1027F00001040462846924F0F00444EA021423F022
:102800000A020A438461026210BD10B5036A23F014
:10281000100303628369046A23F4704343EA0232BB
:1028200024F0A00343EA01118261016210BDFEE7BA
:102830000FB4054B10B503A9044A029800F0AAF89A
:1028400010BC5DF814FB0000BD3D00088C000020AA
:10285000490050EAC12018BF04204A0D18BF40F0BB
:10286000010040F2FF72B2EB515F08BF40F002007E
:10287000012808BF052070470907090E002804DB5E
:1028800000F1E02080F80014704700F00F0000F124
:10289000E02080F8141D70472DE9F0414F1E00EB39
:1028A000C7010446D1E9000115461E4637F006026D
:1028B0000DD02A463346FDF769FD7F1E04EBC703A2
:1028C000D3E90023FDF703FF37F00602F1D1022F11
:1028D00025D0042F13D0062F18BFBDE8F0812A465B
:1028E0003346FDF753FDD4E90A23FDF7F0FE2A46EF
:1028F0003346FDF74BFDD4E90823FDF7E8FE2A46F1
:102900003346FDF743FDD4E90623FDF7E0FE2A46F2
:102910003346FDF73BFDD4E90423FDF7D8FE2A46F4
:102920003346FDF733FDD4E90223FDF7D0FE2A46F6
:102930003346FDF72BFDD4E90023BDE8F041FDF758
:10294000C6BE0122FDF7D9BFFDF7C1BE0022134666
:1029500010461146FDF762BF024A00201107FDF73D
:10296000CCBF000001FDFFFF02E008C8121F08C134
:10297000002AFAD170477047002001E001C1121F00
:10298000002AFBD170470000014908607047000031
:10299000900000202DE9FF4F8DB00F460546002620
:1029A00006E025280BD0DDE90F1290476D1C761C40
:1029B00028780028F5D111B03046BDE8F08F00240A
:1029C000A246A1460122EC4900E0044315F8013F6C
:1029D000203B02FA03F00842F7D128782A2810D0C9
:1029E0006FF02F022878A0F13001092914D80AEBE2
:1029F0008A0102EB410144F0020400EB010A6D1C64
:102A0000F0E701CF5FEA000A03D544F40054CAF1AD
:102A1000000A44F002046D1C28782E2817D115F8FE
:102A2000010F44F004042A280ED06FF02F022878FA
:102A3000A0F1300109290AD809EB890102EB410113
:102A400000EB01096D1CF2E757F8049B6D1C287818
:102A50006C280FD006DC4C2817D068280DD06A28C7
:102A600014D104E0742810D07A280FD10DE044F47A
:102A700000140AE044F4801401E044F4401469783E
:102A8000814202D104F580146D1C6D1C2A786E2AD7
:102A90001FD00CDC632A31D004DC002A8BD0582AEA
:102AA00011D1A3E0642A68D0692A0CD165E0732AA9
:102AB0002ED004DC6F2A73D0702A04D19BE0752AD3
:102AC0006FD0782A6ED01046DDE90F129047761C41
:102AD00050E1C4F30250022806D0032809D004288C
:102AE00001CF09D0066045E101CFF117C0E90061CF
:102AF00040E101CF06803DE106703BE117F8040B91
:102B00008DF8000000208DF80100EB46012003E065
:102B100057F804BB4FF0FF3061074FF0000102D4BB
:102B20000DE008F10101884649450FDA8045F8DBE0
:102B30001BF808100029F4D108E008F101018846CB
:102B40008142FADB1BF808100029F6D1DDE90F23DA
:102B5000AAEB08008146214600F036F9304400EB2C
:102B6000080604E0DDE90F121BF8010B9047B8F1ED
:102B70000108F7D221464846F7E00A21C4F3025380
:102B80004FF0000B0891022B04D001CFC117032B8B
:102B900009D00AE0FF1D27F00707F7E8020108E067
:102BA00032E01FE020E000B2C117042B01D140B297
:102BB000C117031E71F1000307DA4FF0000CD0EBD0
:102BC0000C006CEB01012D2302E0230504D52B231F
:102BD0008DF82430012303E0E30701D02023F7E739
:102BE000984658E00A2110E010210EE010204FF026
:102BF000000B08900CE010214FF0000B44F004048F
:102C00004FF00809089103E008214FF0000B0891EC
:102C1000C4F30253022B04D001CF0021032B06D0B2
:102C200006E0FF1D27F00707F7E8020103E080B286
:102C3000042B00D1C0B24FF0000823072BD5702A17
:102C400007D0DDF820C08CF0100C5CEA0B0C05D02E
:102C50000EE040238DF82430012308E050EA010300
:102C600006D030238DF824308DF825200223984695
:102C7000DDF820C08CF0080C5CEA0B0C0BD150EA9C
:102C8000010301D1630706D530238DF824304FF0BE
:102C90000108A9F10109582A04D038A20B9208AA08
:102CA0000A920BE03AA2F9E75B46089AFDF74AFC64
:102CB0000B9B9B5C0A9A521E0A92137050EA010207
:102CC000F2D10A98ADEB000000F1200B600702D5AD
:102CD00024F4803401E04FF00109D94502DDA9EB6D
:102CE0000B0000E0002000EB0B0141440890AAEB30
:102CF000010AE00306D4DDE90F232146504600F027
:102D000063F806444FF0000908E009A911F809002A
:102D1000DDE90F12904709F10109761CC145F4DB8A
:102D2000E0030CD5DDE90F232146504600F04CF8B6
:102D3000064404E0DDE90F1230209047761C089924
:102D4000481E08900029F5DC08E00A980A990078E6
:102D5000491C0A91DDE90F129047761CBBF1000176
:102D6000ABF1010BF1DC21465046DDE90F2300F009
:102D700019F806446D1C1BE6092801003031323376
:102D800034353637383961626364656600000000A7
:102D90003031323334353637383941424344454691
:102DA000000000002DE9F041044600251E461746AC
:102DB000880404D405E039462020B0476D1C641E09
:102DC000F9D52846BDE8F0812DE9F04104460025FB
:102DD0001E469046C80301D5302700E0202788040E
:102DE00004D505E041463846B0476D1C641EF9D550
:102DF0002846BDE8F08100002DE9FE4F07460E464B
:102E00000025684600F0E4FF00246FF00F0AE84652
:102E10004FF0010957F8240056F82410401A00D545
:102E20004042FDF725FB5146FDF7A4FA58F824105F
:102E300011F0FF4F0BD0FDF75FFA4FF07E51FDF719
:102E400023FA0A4920F00040884205DC07E00849DF
:102E500008440849884202D309FA04F00543641C77
:102E6000032CD7DB2846BDE8FE8F0000295C0F3E0F
:102E7000666666C19A99D9002DE9F04D8D4F21F013
:102E8000004A86B005460C46BA452ADBAAEB070085
:102E900028430AD08848824501DC1AD1CDB106B05A
:102EA0002846BDE8F04DFFF74CBD844A844B2846C8
:102EB000FDF76CFA07460E46824A834B28462146A8
:102EC000FDF764FA06B03A463346BDE8F04DFDF72B
:102ED000FEBB0120FFF758FD06B0BDE8F04DFFF73F
:102EE00035BD7A48824542DABAF1795F0BDA284675
:102EF000FFF7AEFC042808BFFFF72EFD284606B0FA
:102F00002146BDE8F08D2A460B461046FDF73EFAF5
:102F1000834602466E480E460B4606217844FFF76C
:102F2000BBFC5A463346FDF731FA804669488A466B
:102F30005A46334604217844FFF7AEFC5A463346DE
:102F4000FDF724FA00223B46FDF7C1FB02460B4683
:102F500040465146FDF762FC2A462346FDF716FA25
:102F600006B02A462346BDE8F04DFDF7B0BB284623
:102F700024F0004100223D463B46FDF74CFC4FF05B
:102F8000FF32FDF7BAFC0646024653480F460B4691
:102F900006217844FFF780FC32463B46FDF7F6F900
:102FA000CDE900014D4832463B4604217844FFF705
:102FB00073FC32463B46FDF7E9F900222B46FDF74C
:102FC00086FB834602913046394602F0B3F98046CB
:102FD00043480D46504517DCDDE900015A46029B87
:102FE000FDF71CFC42462B46FDF7D0F942462B4626
:102FF000FDF76DFB0122FDF780FC304A304BFDF7F9
:1030000007FC304A304B4CE04FF0000A52460B466A
:103010004046FDF75CFBCDE9031052462B461046B7
:103020001946FDF7B3F932463B46FDF7F4FBDDE9FF
:103030000332FDF7F3FB06460F46DDE900015A4671
:10304000029BFDF7EBFB8346009101223046394697
:10305000FDF753FC194A1A4BFDF7DDFB06460F46F8
:10306000012240462946FDF748FC5A46009BFDF7E1
:103070008DF932463B46FDF7CBFB06460F46012253
:1030800050462946FDF739FC0E4DDFF858802A4698
:103090004346FDF7C0FB32463B46FDF7BCFB2A46E4
:1030A0004346FDF7B8FB002CD8BF81F0004106B0C5
:1030B000BDE8F08D0000F03F0000F07F075C1433A6
:1030C00026A6913C182D4454FB21F93F0000E03F17
:1030D000C0300000D63000004A30000060300000F0
:1030E0003333EF3FFB21E93F2DE9F84F04460D460E
:1030F00021F0004000917349814211DC72498842FD
:1031000001DC06D12CB120462946BDE8F84FFFF777
:1031100018BC6E48002DCCBF6D496E49BDE8F88FD4
:103120006D49814211DD6D498142D8BF4FF0FF36B4
:103130006DDD20462946FFF78BFB042808BFFFF70B
:103140000BFC20462946BDE8F88F6549654F25F000
:103150000045814233DD6449814219DD0026324653
:103160004FF0804320462946FDF7B1FA80468A4653
:10317000012220462946FDF7C0FB00223B46FDF711
:1031800047FB42465346FDF749FB04460D463EE0E9
:1031900001260022BA463B4620462946FDF797FA0B
:1031A00080460F460022534620462946FDF730FB55
:1031B00042463B46FDF732FB04460D4627E04B49AD
:1031C00081421BDDDFF828A102260022534620465B
:1031D0002946FDF7DBF800223B46FDF778FA8046EA
:1031E0000F460022534620462946FDF711FB424672
:1031F0003B46FDF713FB04460D4608E00326224636
:103200002B4600203B49FDF709FB04460D462246AC
:103210002B4610461946FDF7B9F88B468246024602
:103220000B46FDF7B3F807460246334888460B467F
:1032300006217844FFF730FB52465B46FDF7A6F8BF
:1032400082462E488B463A46434605217844FFF78E
:1032500023FB3A464346FDF799F802460B46002EFB
:10326000504659460CDAFDF732FA22462B46FDF756
:103270008DF801B022462B46BDE8F04FFDF7CBBAE2
:10328000FDF725FA22462B46FDF780F81C4A7A44C2
:1032900002EBC603D3E90023FDF7BAFA22462B4618
:1032A000FDF7B6FA174A7A4402EBC603D3E90023C6
:1032B000FDF7B1FA009A002AB8BF81F00041BDE8DD
:1032C000F88F0000000010440000F07F182D4454D7
:1032D000FB21F93FFB21F9BF0000DC3F0000203E4D
:1032E0000000F33F0000F03F0000E63F0080034095
:1032F0000000F83F0000F0BF622E0000202E00000A
:10330000BE2D0000862D00002DE9F04D9446CCF135
:10331000000423F000464CEA0404524F46EAD474F9
:103320009A46884621F00042BC4206D8454240EA0F
:10333000050442EAD474BC4204D9BDE8F04D6246AB
:10334000FFF702BBAAF14055A5F17F6555EA0C04D1
:103350000BD0022404EAAA74434DDFF810E144EADA
:10336000D87452EA000B04D00CE0BDE8F04DFFF732
:10337000BBBE002C14BF012CBDE8F08D022C30D058
:10338000032C32D056EA0C0B0AD0BE4220D1BA42EE
:1033900009D126F0804622F080423346114617E0DC
:1033A00000291ADB25E0DFF8C8B0FB44002C04BF7D
:1033B000DBE90001BDE8F08D012C02BFDBE9000173
:1033C00081F00041BDE8F08D022C0AD0032C0CD016
:1033D000BA4212D1B8F1000F0BDA23482549BDE8F3
:1033E000F08D28462449BDE8F08D28467146BDE899
:1033F000F08D1D482149BDE8F08D921B12153C2A25
:10340000C4BF19481D490EDCBAF1000FBEBF12F14E
:103410003C0F0020014606DB6246FDF7FFF921F074
:103420000041FFF761FE002C08BFBDE8F08D012CC4
:1034300004BF81F00041BDE8F08D114A114B022C10
:1034400007D0FDF7E5F92A46BDE8F04D0A4BFDF738
:10345000DFB9FDF7DDF92A46BDE8F04D064BFDF773
:10346000DAB900000000F07F182D4454FB2109C098
:103470001A2D0000FB21F9BFFB210940FB21F93F78
:10348000075C143326A6A13C08B560B120208DF856
:10349000000028208DF8010030208DF8020038202F
:1034A0008DF8030004E0A32204216846FCF77BFEAC
:1034B0006A46042140F69E2001F08AFE01F0ACFA33
:1034C00008BD00003EB5044602208DF80000CA2069
:1034D0008DF80100E3208DF8020009208DF803002B
:1034E0006A460421682001F073FEA3208DF80000D5
:1034F000610609D5C0218DF80110C8218DF8021090
:10350000C2218DF8031005E08DF801008DF802004E
:103510008DF8030014F4C07F09D0C4218DF8041085
:10352000CC218DF80510C6218DF8061005E08DF828
:1035300004008DF805008DF806008DF808008DF860
:1035400007008DF809006A460A2140F6A72001F01D
:103550003FFEA0074FF0D80503D020208DF80000D3
:1035600001E08DF800506A46012140F6B62001F0D6
:103570002FFEA00601D5012000E0002000F08EF80B
:1035800014F4C07F1ED0E0050AD5B2208DF80000EB
:103590008B208DF80100B6208DF802009B2009E0F9
:1035A000B0208DF8000080208DF80100B4208DF847
:1035B000020090208DF803006A46042140F6A22004
:1035C00001F006FEE1074FF40B6022D0F8218DF8E0
:1035D00000106A46012101F0FBFDFA21072000F0EE
:1035E00039FB072000F004FB012000F021FB6420E0
:1035F00000F0C4FB4FF4FA7000F0D0FBC82125485E
:1036000000F0BEFA282000F0D3FA0A2000F0E0FA19
:1036100005E08DF800506A46012101F0D9FDA007B0
:1036200003D5D9208DF8000001E08DF800506A46DE
:10363000012140F23D7001F0CBFD600701D5012072
:1036400000E0002000F048F8E00601D5012000E08D
:103650000020FFF719FF104D44F00800688101F0C9
:10366000DBF90020A873600601D50620A87314F4C6
:10367000C07F02D0A87B801DA87314F0140F02D065
:10368000A87B1030A873A00702D0A87B001DA873E8
:1036900000203EBD09E3CA02300100200EB54FF400
:1036A000976310B106A107C901E008A207CA8DE817
:1036B00007006A460921184601F08AFD0EBD000088
:1036C000B8AAB38DB4980D355D000000B8AAAAAAB7
:1036D000B088C3C5C700000008B560B1C0208DF830
:1036E0000000C2208DF80100C4208DF80200C62021
:1036F0008DF8030004E08B2204216846FCF753FD9B
:103700006A46042140F6982001F062FD01F084F938
:1037100008BD0000C8234FF48062024940F6F6302D
:1037200001F026B8E85300082DE9FF4F89B017468D
:10373000DDE9165200244C4E884681462C80A24674
:10374000B07B694601F0D2F84FF0FF3B18B1584604
:103750000DB0BDE8F08F708910F0140F3CD00099C7
:1037600009BA21F0FF039DF803100B433B60019958
:103770001B1409BA21F0FF029DF807105B430A43AE
:103780007A6002999DF80B4009BA21F0FF012143AC
:10379000B960039C091424BA24F0FF0C9DF80F4073
:1037A00012144CEA040CC7F80CC04FEA2C474943EA
:1037B00002FB023207FB071111441024A1F17061D2
:1037C000B1F1007F04D901F027F9A5F800A0BEE708
:1037D000298841F4807129804206694611D50A1969
:1037E000A41D13885BBAA8F8003053885BBAA8F808
:1037F0000230928852BAA8F804202A8842F00802BF
:103800002A8010F4C07F11D00A19A41D13885BBA56
:10381000A9F8003053885BBAA9F80230928852BAEE
:10382000A9F804202A8842F070022A80800716D066
:103830000C44E07800F0C00500F03F016078C0075C
:1038400006D0C80801F007013268491C02B1904750
:103850006078000703D5716809B1A80988470C98FA
:1038600001F0EEFC002073E7300100202DE9FF415C
:10387000044603A800F01AFEBDF80C00410CC30377
:103880002F48028902F00300550754F8200000D5A4
:103890004042C2F3C105960654F8255000D56D424A
:1038A000C2F38116D20554F8264000D56442A0FB2D
:1038B0000367C21702FB037200FB0120820042EA89
:1038C0009670A5FB0367EA1702FB037205FB012252
:1038D000950045EA9672A4FB0367E51705FB0373A1
:1038E00004FB01318B0043EA9671030E8DF8003022
:1038F000030C8DF80130030A8DF802308DF80300B7
:10390000100E8DF80400100C8DF80500100A8DF8CB
:103910000600080E8DF80800080C8DF80900080A4A
:103920008DF80A008DF807208DF80B106A460C21DF
:103930004FF4257001F04CFC04B0BDE8F0810000AC
:103940003001002030B5044613A285B007CA8DE8C7
:1039500007004FF0FF35C82C16D8C820B0FBF4F193
:10396000491E080A8DF80C008DF80D1003AA0221DB
:1039700040F2162001F02CFC30B96A460C2140F6CA
:10398000C12001F025FC10B1284605B030BD054826
:1039900084810020F9E70000FEF2ABC4AAF1DFDF6A
:1039A000BBAFDFDF30010020F8B53049098901F0F5
:1039B000030250F822404A0700D56442C1F3C10215
:1039C0008B0650F8222000D55242C1F3811350F8E3
:1039D0002330C80500D55B42254984FB01408500A2
:1039E00045EA947082FB0142A40F44EA820483FBFF
:1039F0000121950F45EA8105010E8DF80010010C9B
:103A00008DF80110010A8DF802108DF803006A4646
:103A100004214FF4747001F0DBFB4FF0FF3688B9DE
:103A2000200E8DF80000200C8DF80100200A8DF882
:103A300002008DF803406A4604214FF4757001F0CE
:103A4000C7FB08B13046F8BD280E8DF80000280CE1
:103A50008DF80100280A8DF802008DF803506A469F
:103A600004214FF4767001F0B3FBF8BD3001002063
:103A700009E3CA022DE9FF4104463CA004F0030318
:103A8000006802903AA0006803903AA006683AA045
:103A9000056802A8C15C8DF80010C4F3C101425C46
:103AA0008DF80120C4F38112805C8DF8020003A818
:103AB000C35C8DF80430415C8DF80510805C8DF896
:103AC00006006A46032140F2264001F081FB4FF0D8
:103AD000FF37E0BB01AA032140F22A4001F078FB46
:103AE000A8BBCDE9006560070BD59DF8000040F04C
:103AF00001008DF800009DF8040040F001008DF8F1
:103B00000400A0060BD59DF8010040F001008DF8DF
:103B100001009DF8050040F001008DF80500E0056A
:103B20000BD59DF8020040F001008DF802009DF8D1
:103B3000060040F001008DF806006A4603214FF4AC
:103B4000886001F045FB10B901AA032100E004E000
:103B500040F2314001F03CFB18B1384604B0BDE8FA
:103B6000F081064804810020F8E700004CCD6C008D
:103B70000CC92C003656760026466600300100201F
:103B80004FF47A7290FBF2F008B54843010E8DF8BD
:103B90000010010C8DF80110010A8DF802108DF84B
:103BA00003006A4604214FF4AE7001F011FB08BD1A
:103BB0000521B0FBF1F008B5010A8DF800108DF871
:103BC00001006A4602214FF4AD7001F001FB08BD0F
:103BD0000521B0FBF1F008B5010A8DF800108DF851
:103BE00001006A4602214FF4AC7001F0F1FA08BD01
:103BF00008B500218DF80010C10702D030218DF8E2
:103C00000010810705D59DF8001041F00C018DF8DA
:103C10000010400705D59DF8000040F003008DF826
:103C200000006A4601214FF4A47001F0D1FA08BDEA
:103C300008B560B1042800D90420401E8DF80000AA
:103C40006A46012140F24F1001F0C2FA08BD01207E
:103C5000F3E700002DE9FC41054640074FF0FF3631
:103C60007CD0B1F5C86F79D80846FCF70AFC3E490C
:103C7000FCF742FB074601A800F0FAFB9DF80400A0
:103C8000022806D004280DD008282ED0102865D18F
:103C900034E00E213846FCF76DFBFCF710FC84B2D3
:103CA000324907E00D213846FCF764FBFCF707FCBE
:103CB0002F4984B23846FCF7EDFAFCF700FC210AE4
:103CC0008DF8001080B28DF80140010A8DF80210C5
:103CD0008DF80300E8076C4620D0224602214FF4FD
:103CE000EA7001F075FAC8BB11E00C213846FCF708
:103CF00041FBFCF7E4FB84B21E49DBE70B213846AD
:103D0000FCF738FBFCF7DBFB84B21B49D2E7A21CB3
:103D100002214FF4927001F05BFAF8B9A8070DD5B3
:103D20006A4602214FF4EC7001F052FAB0B9A21CBD
:103D300002214FF4947001F04BFA78B9680710D55E
:103D40006A4602214FF4EE7001F042FA30B9A21C2B
:103D500002214FF4967001F03BFA10B13046BDE8F5
:103D6000FC810020FBE700000000484300004046C3
:103D70000000C045000040450000C0440521B0FBE4
:103D8000F1F008B5010A8DF800108DF801006A46BF
:103D900002214FF4EF7001F01BFA08BD0521B0FBC2
:103DA000F1F008B5010A8DF800108DF801006A469F
:103DB00002214FF4ED7001F00BFA08BD38B504464E
:103DC0008DF8000069460320ABBE204638BD0000D8
:103DD0002DE9F04385B006460222042104A88DE8AF
:103DE0000700264801230D22406801782448FDF78A
:103DF0003FF818B1072005B0BDE8F0839DF810101A
:103E00001C2000EAD1029DF81310DFF87890C1F36E
:103E100001131A438DF80C209DF81120C1F3810382
:103E200000EAD2021A438DF80D209DF8122001F00D
:103E3000030100EAD20008430024134F8DF80E005E
:103E4000A04603AD285D10B146F8249009E046F87D
:103E500024800CE056F824003946FCF71BFA46F89B
:103E60002400285D401E10F0FF002855F2D1641C8C
:103E7000E4B2032CE6D30020BDE7000034000020AC
:103E8000940000207B14AE3E1D5A843F2DE9F04F74
:103E900087B04FF002090DF10C0B4FF0010ACDE98C
:103EA00000B9F84E8DF80CA04FF0000805468DF8CB
:103EB0000D80CDF80890306817460C46827C7068FB
:103EC00053460178F048FDF7FBF800287DD1C82063
:103ED000FCF702FE00208DF80C00D046CDF800B0B3
:103EE000CDE901893068DA460123C27B7068017828
:103EF000E548FDF7E5F80028E8D1C346CDF808907D
:103F0000CDE900AB3068D046012342797068017872
:103F1000DD48FDF7D5F80028D8D1DA46CDF8008085
:103F2000CDE901A93068C3460123827C706801781D
:103F3000D548FDF7C5F80028C8D1C846D146CDF808
:103F400000B0CDE901983068DA460123C27D70687F
:103F50000178CD48FDF7B4F80028B7D1CDF800A01E
:103F6000CDE9019831687068D3460A790178B24684
:103F70000123C548FDF7A4F80028A7D10C208DF82F
:103F80000C0002204E46CDF800B0CDE90160DAF811
:103F90000010DAF80400D1460A7901780123BA4802
:103FA000FDF78EF8002891D10F20FCF795FDD9F888
:103FB000281003AB4FF0020A497ACDE900368DF89C
:103FC0000C10B346CDF808A000E0A0E0D9F800102E
:103FD000D9F8040001238A780178AB48FDF770F81E
:103FE000002889D1D9F828004E460DF10C09007A35
:103FF000CDE9009BD0468DF80C00CDF808803068E4
:10400000DA4601234278706801789F48FDF758F836
:1040100000287CD1B06A807A0FB140F0E0008DF8C2
:104020000C00CDF80090CDE901A830680123827919
:10403000706801789448FDF743F8002867D127B1EC
:10404000B06AC07A40F0E00000E018208DF80C0063
:10405000CDF80090CDE901A830680123C2797068DD
:1040600001788948FDF72CF8002872D117B1C820D3
:10407000FCF732FDCDE9009A4020C3468DF80C00D4
:10408000CDF808B030685746C846027970680123F9
:1040900001787D48FDF714F8C8BBCDE9008778208A
:1040A0008DF80C00CDF808B03068D946012342796C
:1040B000706801787448FDF703F840BB3220FCF7C4
:1040C0000BFDCDE900874FF0000A8DF80CA0CDF86C
:1040D0000890306801234279706801786A48FCF7DB
:1040E000EFFFA0B903A9CDE90019CDF80890316818
:1040F0007068B0468A7A017801236348FCF7B8FEFD
:1041000028B9BDF80C004FF00C0B40BA00E020E0DD
:10411000B0FBFBF0C5F808A0C5F804A0C5F800A0E6
:10412000C4F808A0C4F804A0C6B20027C4F800A0D0
:1041300040E003AACDE9002BCDF80890D8F8001094
:10414000D8F804000123CA7A01784F48FCF790FEA2
:1041500020B14FF0FF3007B0BDE8F08FBDF80E1072
:10416000BDF80C0049BA40BA0AB2236800B2BDF8E3
:10417000101018442060606849BA10446060A0685C
:1041800009B20844A060BDF812002B6840BA00B222
:10419000BDF81410BDF816201844286049BA6868A4
:1041A00009B20844686052BAA86812B210447F1C71
:1041B000FFB2A860B742BCD328688322C1170904A4
:1041C00041EA104100040023FBF7ACFF3246002314
:1041D000FBF7A8FF286068688322C117090441EA39
:1041E000104100040023FBF79DFF32460023FBF73C
:1041F00099FF6860A8688322C117090441EA104149
:1042000000040023FBF78EFF32460023FBF78AFFF2
:10421000A86020684FF40065C117090441EA104105
:1042200000042A460023FBF77DFF32460023FBF7FC
:1042300079FF206060682A46C117090441EA1041ED
:1042400000040023FBF76EFF32460023FBF76AFFF2
:104250006060A0682A46C117090441EA10410004C1
:104260000023FBF75FFF32460023FBF75BFFA060F4
:10427000002802DDA0F5803001E000F58030A0606C
:10428000002068E734000020940000202DE9FF5F43
:104290008846814603AE022003210096CDE9011035
:1042A0002D480025012340680D2201782B48FCF79A
:1042B000DFFD18B1072004B0BDE8F09F9DF80C00A9
:1042C000002400F01F008DF80C009DF80D006FF029
:1042D0000F0B00F01F008DF80D009DF80E004FF041
:1042E000010A00F01F008DF80E0000BF59F82410DD
:1042F00058F82400081A00D54042FCF7B9F859468E
:10430000FCF738F80746305DC0B1154802E01549A2
:10431000FBF7C0FF315D491E11F0FF013155F6D1A9
:1043200001463846FBF7E8FF4FF07E51FBF7ACFF44
:104330000D4920F00040884205DC07E00B48384476
:10434000B0F1D97F02D90AFA04F00543641C032CAA
:10435000CCDB2846AFE700003400002094000020AA
:104360000000C84154E3853F295C0F3E0000E0BED9
:1043700090F90010002902DD4FF00000704702DACA
:104380004FF00400704790F90110002902DD4FF052
:104390000100704702DA4FF00500704790F9020003
:1043A000002802DD4FF00200704702DA4FF00600ED
:1043B00070474FF007007047FCF750FFFEF7E5F835
:1043C000FDF76AFFFDF786FFFDF7A4FF0021114806
:1043D000FDF7D8FC04210F48FDF7D4FC0D48FDF78C
:1043E000CDFAFCF727FBFCF743F80B4C4FF07C555C
:1043F00020612846FDF73CFF074A0832111D101FB7
:10440000FDF7DEFF60682061FDF71EFF1420FCF75A
:1044100063FBEEE7E8000020000000202DE9F041FA
:10442000124C20F00101002594F8240010B1002066
:10443000BDE8F081A07A4FF0FF3668B10840277CD4
:104440002074884200D0354641B1012000F036FF8B
:1044500000F0E2FA38B127743046E9E7207D00B178
:10446000012000F02BFF2846E2E700003400002086
:104470000D494A7A42B1012A08D0022A0FD0032AF4
:104480000FD04FF0FF307047022200E0042202708C
:10449000C97C11B11106C90D0170002070470822B6
:1044A000F5E71022F3E70000340000200F494A7AB4
:1044B00042B1012A09D0022A11D0032A12D04FF0AA
:1044C000FF3070474FF4804201E041F69C72028059
:1044D000C97C11B1C2F34E010180002070474FF436
:1044E0008052F4E74FF40062F1E70000340000204E
:1044F0000B49097A39B1012907D002290AD00329C9
:104500000BD0002103E0FA2101E04FF4FA710180A1
:10451000002070474FF47A71F9E74FF4FA61F6E73B
:10452000340000200A49097A41B1012908D0022942
:104530000AD003290AD04FF0FF307047054900E048
:1045400005490160002070470449FAE70449F8E78B
:104550003400002000000343000083423333034251
:10456000333383410C49C97A072913D2DFE801F0BC
:104570001204060A0C0E1000BC2100E0622101802A
:10458000002070472A21FAE71421F8E70A21F6E70C
:104590000521F4E70021F2E734000020054991F8F5
:1045A000242012B14FF0FF307047C98901800020EC
:1045B00070470000340000202DE9F04786B08020CD
:1045C0008DF80C000DF10C09022701264846534CCA
:1045D0008DE8C10020683346827C606801785048CD
:1045E000FCF76EFD4FF0FF3A00283BD16420FCF74A
:1045F00073FACDE900960025B8468DF80C50CDF839
:10460000088020684F460123827C60680178444816
:10461000FCF756FD002877D10621CDE90071CDF8D1
:10462000088020680123827D606801783C48FCF79F
:104630001FFC002868D19DF811009DF80F10C007DD
:10464000400F01F0010140EA41019DF80D0000F02A
:104650000100014309D0012905D0022919D031A058
:10466000FEF7E6F850E0E67414E0CDE90076CDF808
:10467000088020680123C278606801782848FCF728
:10468000F7FB40BB9DF80C0010F00F0020D0042871
:1046900022D0E574FF2004F80A0F4FF6FF7104F8EA
:1046A000020C04F8010C6070A180A0712072A67049
:1046B00026766576E572A572E56025616561A57669
:1046C000E576A5834FF4FA6000F012FC18B907E014
:1046D0001E48FEF7ADF817E01DA0FEF7A9F8C2E7E7
:1046E000022000F0EBFA78B92A2000F079FC58B9E2
:1046F000322000F0B5FC38B90020FFF78FFE18B962
:10470000002000F017FB18B1504606B0BDE8F08756
:10471000002000F0EFFC0020F7E70000340000204C
:1047200094000020556E737570706F72746564200C
:10473000736F6674776172652070726F64756374ED
:10474000207265762025642E0A000000D0600008E3
:1047500048616C662073656E7369746976697479F3
:10476000207061727420666F756E642E0A000000FE
:104770002DE9FF4FDFF89C80064689B098F82500A8
:1047800015460F464FF0FF39D8BBD7B3002420E0C1
:10479000301B102800DD102080B283463A190146F4
:1047A0009246204600F014FD58BB03AA5946204605
:1047B00000F0FAF828BB50465A4603A9FBF705FD5E
:1047C00020B16FF001000DB0BDE8F08F04EB0B00DD
:1047D00084B2B442DCD3280A8DF81C00022007A959
:1047E000CDE900108DF81D500290D8F80000444625
:1047F0000123827ED8F8040001780748FCF760FCAA
:1048000008B14846DFE7012084F825000C98E084D1
:104810000020D8E734000020940000202DE9FF5F3D
:1048200006464FF0FF3B28284DD800272D4C0DF1B0
:104830000C094FF0070802257EB1012000F096FB1D
:1048400020208DF80C004FF0010A012E1AD0052E01
:104850001BD88DF80DA0052021E0002000F086FB7C
:10486000CDE900958DF80C708DF80D8002952068CB
:104870000123827C606801781B48FCF721FC10BB97
:1048800027752CE08DF80D70E5E7142E03D88DF810
:104890000D500A2003E003208DF80D00142000F0D5
:1048A0009FFB9DF80D10CDE9009508EB81108DF868
:1048B0000D00029520680123827C606801780A4817
:1048C000FCF7FEFB18B1584604B0BDE8F09F082085
:1048D000A072277384F814A00020FFF79FFD00202A
:1048E000F2E7000034000020940000202DE9FF5F73
:1048F0002B4C0746904694F824008B464FF0FF3A25
:10490000B0B3A07AA0B302260DF10C09CDE9009650
:10491000029620680123827A606801782148FCF7BA
:10492000A7FA28BBBDF80C0045BABD4203D200214E
:1049300088F800102AE060684188B5EB510F18D95B
:104940000122CDF80090CDE90126216801234A7C9F
:1049500001781448FCF78CFA50B99DF80C00C00699
:1049600007D500F059F86FF0010004B0BDE8F09FE2
:104970000CE0CDF800B0CDE9017620680123C27AC1
:10498000606801780748FCF773FA08B15046ECE715
:10499000B5FBF7F0401E88F800000020E5E70000B6
:1049A00034000020940000202DE9FF4115000E4640
:1049B0004FF0FF3728D0164CA17A29B3010A8DF8A1
:1049C0000C10C0B28DF80D00616830444A899042E5
:1049D0001AD84FF0020803AACDE90028CDF80880C4
:1049E000206809780123027E0A48FCF769FB58B960
:1049F0008DE8600120680123427D606801780548E8
:104A0000FCF736FA002800D0384604B0BDE8F08143
:104A100034000020940000202DE9FF47694C4FF03E
:104A2000FF39A07A002879D000270DF10C088DF805
:104A30000C700226012540468DE8610020682B4657
:104A4000C27B606801786048FCF73AFB002865D1BA
:104A5000CDF80080CDE901562168606801234A79CC
:104A600001785948FCF72CFB002857D1CDF800807D
:104A7000CDE901562168606801230A79017852481E
:104A8000FCF71EFB002849D194F8240078B30C20D1
:104A90008DF80C00CDF80080CDE901562068012387
:104AA0000279606801784848FCF70AFB002835D194
:104AB0003220FCF711F8C0208DF80C00A07AC00756
:104AC00002D0E0208DF80C00CDF80080CDE9015631
:104AD000206801230279606801783B48FCF7F0FA0E
:104AE00000286AD1607C18B18DF80C6002E016E0F5
:104AF0008DF80C70CDF80080CDE9015620680123B7
:104B0000C27B606801783048FCF7DAFA30B98DF87A
:104B10000C70CDF80080CDE9015644E04DE0042052
:104B20008DF80C00CDF80080CDE9015620680123F6
:104B30000279606801782448FCF7C2FAE8BBA07CDF
:104B4000A0B9A07AC00711D05FF060008DF80C000A
:104B5000CDF80080CDE90156206801230279606814
:104B600001781948FCF7ACFA38BB01E04020EDE7CA
:104B70003220FBF7B1FF607C10B18DF80C5001E0E2
:104B80008DF80C70CDF80080CDE901562068012326
:104B9000C27B606801780C48FCF792FA68B9094852
:104BA00010308DE861002068012342796068017847
:104BB0000548FCF785FA002800D0484604B0BDE857
:104BC000F087000034000020940000202DE9F04719
:104BD000394C82468AB094F824000F4620B1002058
:104BE00000F03EF9012600E0002607A8FFF780FC50
:104BF00006A8FFF73DFC09A8FFF7B4FC08A8FFF7DB
:104C0000CDFC94F80A9094F81080002500223946D3
:104C10005046FFF73BF910B16D1C022DF6DB022D5B
:104C20001AD00025012203A96846FFF72FF910B119
:104C30006D1C022DF6DB022D0ED003A93846FEF7BF
:104C4000DBF8C7B269465046FFF720FB10F0FF0FB4
:104C50004FF0000502D002E0002503E001250FB966
:104C600045F00205FF2020726072E0724FF6FF717E
:104C7000E181A072207401202073BDF81C0000F0B7
:104C800037F99DF8180000F019F8BDF8240000F07D
:104C9000A7F9BDF8200000F0E3F9484600F02AFA31
:104CA0004046FFF7BBFB16B1012000F0D9F80AB06F
:104CB0002846BDE8F0870000340000207FB51B4C7B
:104CC0004FF0FF35A17A49B3022806D0042806D058
:104CD00008280ED0102821D10DE0002000E0082087
:104CE0008DF80C00607A9DF80C10B0EBD10F04D059
:104CF00006E01020F4E71820F2E7002004B070BDB1
:104D00000222012103A88DE8070020680123C2794F
:104D1000606801780648FCF7D3F908B12846EDE74A
:104D20009DF80C00C0086072E7E700003400002026
:104D3000940000202DE9FF47474C0746A07CB8426D
:104D400003D1002004B0BDE8F08743484FF0FF3A9C
:104D50000225D0E900104FF0010803AEA7B300967A
:104D6000CDE901850A79017801233C48FCF780F8F8
:104D700000286CD19DF80C00009620F020008DF8E2
:104D80000C00CDE901852068012302796068017873
:104D90003248FCF795F9E8BB0320FBF79DFE8DF840
:104DA0000C5094F8220010B182208DF80C0094F879
:104DB000230028B19DF80C0040F030008DF80C0065
:104DC0000096CDE9018539E0FFE7CDE9006802955D
:104DD0000A79017801232148FCF74AF8D0B9A07A72
:104DE000C0079DF80C0002D040F0200001E020F048
:104DF0002000A9468DF80C0035468DE82003206878
:104E000001230279606801781448FCF759F908B960
:104E1000032000E01BE0FBF75FFE94F8220000B1E6
:104E200080208DF80C0094F8230028B19DF80C0028
:104E300040F030008DF80C008DE82003206801233D
:104E4000027D606801780548FCF73AF908B15046E0
:104E500078E7A77475E70000340000209400002074
:104E60002DE9FF41204C94F82410814222D00026E5
:104E70000227012528B394F82500F8B1002000F09E
:104E80001DFA0020FFF756FFE08C00F0E9F88DF8DE
:104E90000C6003A88DE8A10060680123232201783B
:104EA0001248FCF70DF984F82450012000F006FAAE
:104EB000FFF7B2FD002004B0BDE8F0814FF0FF30F5
:104EC000F9E7002000F0FAF9207C8DF80C0003A827
:104ED0008DE8A10060680123232201780348FCF7D4
:104EE000EFF884F82460E3E7340000209400002009
:104EF0007FB51C4C4FF0FF35A17A61B3FA2809D079
:104F0000B0F5FA7F08D0B0F57A7F0FD0B0F5FA6F20
:104F100021D10DE0002000E008208DF80C00207A5F
:104F20009DF80C10B0EBD10F04D006E01020F4E790
:104F30001820F2E7002004B070BD0222012103A86E
:104F40008DE80700206801238279606801780648AF
:104F5000FCF7B6F808B12846EDE79DF80C00C0084C
:104F60002072E7E734000020940000207FB51A4C3F
:104F7000054694F82300A84202D1002004B070BD79
:104F80000DB1302000E000208DF80C00A07C28B18D
:104F90009DF80C0040F002008DF80C0094F82200FF
:104FA00028B19DF80C0040F080008DF80C00022222
:104FB000012103A88DE8070020680123027D6068B5
:104FC00001780648FCF77CF810B14FF0FF30D5E7C8
:104FD00084F82350D1E70000340000209400002022
:104FE0007FB51D4C4FF0FF35A17A71B3012102222C
:104FF000BC2802D38DF80C1013E0622802D38DF880
:105000000C200EE02A2801D3032008E0142801D345
:10501000042004E00A2801D3052000E006208DF8D2
:105020000C00E07A9DF80C30984202D1002004B0C8
:1050300070BD03A88DE807002068012382786068AE
:1050400001780648FCF73CF808B12846EFE79DF8E0
:105050000C00E072EAE70000340000209400002019
:105060002DE9FF41214D04464FF0FF37A87A70B378
:1050700095F8240058BB287D4FF47A7648B164B186
:10508000282C03D8E0B2FFF7C9FB2DE00020FFF782
:10509000C5FB042C05D2042406E00020FFF7BEFB6C
:1050A000F9E7B44200D93446B6FBF4F0401E8DF85F
:1050B0000C000222012103A88DE8070028680123C3
:1050C0004278686801780A48FBF7FAFF18B1384659
:1050D00004B0BDE8F0819DF80C00401CB6FBF0F078
:1050E000E8814008FFF77CFF0020F1E73400002052
:1050F000940000202DE9FF47054610F0700F4FF097
:1051000001074FF0000602D08DF80C7006E015B1D3
:105110008DF80C6002E040208DF80C000DF10C09B8
:105120004FF002084946284C8DE88201206801238F
:10513000827C606801782548FBF7C2FF4FF0FF3A98
:1051400080BB9DF80C0020F0400020738DF80C60AF
:10515000680602D404208DF80C00A80605D49DF83A
:105160000C0040F002008DF80C00E80605D49DF814
:105170000C0040F001008DF80C00280705D49DF8C4
:105180000C0040F038008DF80C00CDF80090CDE90F
:10519000017820680123C27C606801780B48FBF726
:1051A0008FFF20B1A672504604B0BDE8F08725B14C
:1051B000082D02D00020FFF7D9FEA57226753220F7
:1051C000FBF78AFC0020EFE7340000209400002069
:1051D0002DE9FF4115000E464FF0FF3728D0164C41
:1051E000A17A29B3010A8DF80C10C0B28DF80D0018
:1051F000616830444A8990421AD84FF0020803AAE5
:10520000CDE90028CDF80880206809780123027EC6
:105210000A48FBF755FF58B98DE860012068012363
:10522000427D606801780548FBF74AFF002800D0FE
:10523000384604B0BDE8F08134000020940000201E
:10524000704710B58AB005A901A8FFF7BFFCC0B22E
:10525000032802D001200AB010BD04A8FFF762F9AC
:105260000198FBF705F904990C46FBF713F8FBF7D7
:105270000DF901900298FBF7FBF82146FBF70AF8BD
:10528000FBF704F902900398FBF7F2F82146FBF7CD
:1052900001F8FBF7FBF8039001A8FEF785FB08A8CF
:1052A000FFF704F90020ADF8200005900690079064
:1052B00005A8FEF7DBFA0020CDE700002DE9FF414D
:1052C0001A4C0646214694F824C00027D1E9000173
:1052D0007D1E02220123BCF1000F0ED0B6B18DF865
:1052E0000C2003AE0096CDE90132C27B0978012380
:1052F0000F48FBF7E5FE78B912E094F80AC0BCF15C
:10530000000F09D016B1667C6EB902E08DF80C7002
:10531000E7E78DF80C30E4E7284604B0BDE8F081FB
:105320009DF80C0060740020F7E7000034000020B6
:10533000940000202DE9F04106460F46FBF727FBBD
:10534000041E0D4618BF0120284320F00040C0F184
:105350007F6000F1E040C00F0ED0301C18BF01206C
:10536000384320F00040C0F17F6000F1E040C00F02
:1053700004BF0120FDF708FB20462946BDE8F08167
:1053800000000000000000000102030406070809F5
:10539000000000000102030475191A0C6A231B1C8B
:1053A0001F207274433B4138393A6B6C376F0624C7
:1053B0006D6E7000D000000476005401F7FD00010E
:1053C0008300000000080000000100183200050002
:1053D000000020410000D242295C0F3E9A99993E7C
:1053E0003333733F295C0F3E00007000000000243F
:1053F000000000020003000000650054FFEF000001
:10540000FA80000B12820001030C30C30E8C8CE971
:1054100014D5400213710F8E3883F8833000F8835F
:10542000258EF8833000F883FFFFFFFF0FFEA9D61B
:10543000240004001A8279A10000003CFFFF000054
:105440000010000038836FA2003E033040000000CF
:1054500002CAE3093E8000002000000000000000B6
:105460004000000060000000000C0000000C186EFE
:10547000000006920A16C0DFFFFF0256FD8CD377AC
:10548000FFE1C496E0C5BEAA00000000FFFF0B2BA1
:1054900000001657000003594000000000001DFAEC
:1054A00000026C1D000000003FFFDFEB003EB3B6C2
:1054B000000D227800002F3C00000000001942B5CA
:1054C000000039A20000B365D90E9FC91DCF4C342E
:1054D00030000000500000003BB67AE80064000095
:1054E00000C8000000000000100000001000FA9248
:1054F0001000225E000D229F00010000003200001B
:10550000FF46000063D400001000000004D6000035
:1055100004CC000004CC0000000010720000004029
:105520000000000000000000000600020005000767
:105530000000000000640000000000000000000502
:1055400000050064002000000000000000000000D2
:10555000000040000000030000000032F898000046
:10556000FF650000830F0000FF9BFC0000000000AF
:10557000000000000000000000000000000000002B
:10558000000000000000000000000000000000001B
:1055900000000000000010004000000000000006B5
:1055A0000000B26A000200000001FB8300680000F6
:1055B00000D9FC007CF1FF830000000000650000C2
:1055C000006403E8006400280000002500000000DB
:1055D00016A000000000100000001000002F0000C6
:1055E000000001F40000100000280000FFFF4581CA
:1055F000FFFFFA72000000000000000000440005F8
:105600000005BAC6004778A20000000100000000B3
:1056100000000600000000140000254D002F706DF2
:10562000000005AE000C02D00000000000000000E9
:105630000000000000000000001B0000000000004F
:1056400000000000000000000064000000080000EE
:10565000000000000000000000000000000000004A
:10566000000000000000000000000000000000003A
:10567000000000000000000000000000000000002A
:10568000000000000000000000000000000000001A
:10569000000000000000000000000000000000000A
:1056A0000000000000000000001B000000000000DF
:1056B00000000000000E000E00000AC700040000F9
:1056C00000000032FFFFFF9C00000B2B00000002D7
:1056D0000000000100000064FFE500000000000081
:1056E00000000000000000000000000100000000B9
:1056F00000010000000000000001800000018000A7
:1057000000018000002426D30000000000000000FB
:10571000000600100096003C0000000000000000A1
:1057200000000000000000000C0A4E68CDCF770991
:1057300050166759C619CE82000000000000000014
:105740000000000000000000000000000000000059
:1057500017D78400030000000000000000000000D4
:10576000C7938F9D1E1B1C19000000000000000045
:105770000000000000000000000000000000000029
:105780000203188500004000000000030000000331
:1057900000000000000000004000000000000000C9
:1057A00000000000000000000000000000000000F9
:1057B00000000000000000000000000000000000E9
:1057C000000000000000000000000000677DDF7E98
:1057D00072902E554CF6E688000000000000000094
:1057E0000000000000000000D8DCB4B8B0D8B9ABAD
:1057F000F3F8FAB3B7BB8E9EAEF132F51BF1B4B835
:10580000B08097F1A9DFDFDFAADFDFDFF2AAC5CD25
:10581000C7A90CC92C97F1A989264666B28999A90E
:105820002D557DB0B08AA896365676F1BAA3B4B29B
:1058300080C0B8A89711B28398BAA3F02408441086
:105840006418B2B9B49883F1A329557DBAB5B1A350
:105850008393F0002850F5B2B6AA839328547CF1C4
:10586000B9A3829361BAA2DADEDFDB819AB9AEF521
:10587000606870F1DABAA2DFD9BAA2FAB9A382924B
:10588000DB31BAA2D9BAA2F8DF85A4D0C1BBAD83FF
:10589000C2C5C7B8A2DFDFDFBAA0DFDFDFD8D8F12B
:1058A000B8AAB38DB4980D355DB2B6BAAF8C96195F
:1058B0008F9FA70E161EB49AB8AA872C547CBAA440
:1058C000B08AB691325676B28494A4C808CDD8B8BE
:1058D000B4B0F19982A82D557D98A80E161EA22C61
:1058E000547C92A4F02C5078F184A898C4CDFCD8B4
:1058F0000DDBA8FC2DF3D9BAA6F8DABAA6DED8BA21
:10590000B2B68696A6D0F3C841DAA6C8F8D8B0B425
:10591000B882A892F52C548898F135D9F418D8F1AA
:10592000A2D0F8F9A884D9C7DFF8F883C5DADF690F
:10593000DF83C1D8F40114F1A8824EA884F311D1F9
:1059400082F5D992289788F109F41C1CD884A8F311
:10595000C0F9D1D99782F129F40DD8F3F9F9D1D949
:1059600082F4C203D8DEDF1AD8F1A2FAF9A884982B
:10597000D9C7DFF8F8F883C7DADF69DFF883C3D85F
:10598000F40114F198A8822EA884F311D182F5D9DC
:1059900092509788F109F41CD884A8F3C0F8F9D183
:1059A000D99782F149F40DD8F3F9F9D1D982F4C429
:1059B00003D8DEDFD8F1AD8898CCA809F9D9829256
:1059C000A8F57CF1883ACF944A6E98DB6931DAAD5C
:1059D000F2DEF9D88795A8F221D1DAA5F9F417D922
:1059E000F1AE8ED0C0C3AE82C684C3A88595C8A5CB
:1059F00088F2C0F1F4010EF18E9EA8C63E56F55411
:105A0000F18872F40115F19845856EF58E9E048833
:105A1000F142985A8E9E068869F4011CF1981E1175
:105A200008D0F504F11E970202983625DBF9D985D6
:105A3000A5F3C1DA85A5F3DFD88595A8F309DAA522
:105A4000FAD88292A8F578F1881A849F268898213E
:105A5000DAF41DF3D8879F39D1AFD9DFDFFBF9F432
:105A60000CF3D8FAD0F8DAF9F9D0DFD9F9D8F40B79
:105A7000D8F3879F39D1AFD9DFDFF41DF3D8FAFC13
:105A8000A869F9F9AFD0DADEFAD9F88F9FA8F1CC7E
:105A9000F398DB45D9AFDFD0F8D8F18F9FA8CAF3D0
:105AA0008809DAAF8FCBF8D8F2AD978D0CD9A5DF86
:105AB000F9BAA6F3FAF412F2D8950DD1D9BAA6F331
:105AC000FADAA5F2C1BAA6F3DFD8F1BAB2B6869671
:105AD000A6D0CAF349DAA6CBF8D8B0B4B8D8AD840A
